:100000000C9472000C94FC060C9429070C949A0032
:100010000C949A000C949A000C949A000C949A00F8
:100020000C949A000C949A000C949A000C949A00E8
:100030000C949A000C949A000C949A000C949A00D8
:100040000C9456070C949A000C94420A0C94740A6F
:100050000C949A000C949A000C949A000C949A00B8
:100060000C949A000C949A0005A84CCDB2D44EB9C9
:100070003836A9020C50B9918688083CA6AAAA2A4B
:10008000BE000000803F00000008000201000003E5
:100090000407000000000000000001020408102016
:1000A000408001020408102001020408102004040A
:1000B0000404040404040202020202020303030310
:1000C00003030000000023002600290000000000B8
:1000D000250028002B0000000000240027002A0033
:1000E0009704A40A11241FBECFEFD8E0DEBFCDBF16
:1000F00011E0A0E0B1E0EEE8FFE102C005900D9252
:10010000AE3AB107D9F724E0AEEAB1E001C01D92E2
:10011000A630B207E1F710E0C4EED0E004C02297A9
:10012000FE010E94640FC03ED107C9F70E94E80A91
:100130000C94C50F0C9400000000000000000000AB
:100140000F931F93CF93DF938B01EA0160E086E06A
:100150000E949E0861E086E00E946508F89421975D
:1001600008F42BC0F8010190008007D0029005D060
:1001700001900190019001D017C008D007D006D09F
:1001800005D004D003D002D001D008955E9A001C9F
:100190000000000008F05E98000000000000000071
:1001A000000008F45E9808958F0180915B03882316
:1001B00009F4D5CF78940000D1CF789482E390E011
:1001C000DF91CF911F910F910C94F7070000000071
:1001D00060E080913A010E94650860E080913C01F6
:1001E0000E94650861E080913A010E949E0820E427
:1001F00036E04AE261E082E10E944F0626E040E8F4
:1002000055E260E070E089E693E00E94E0096FE368
:1002100071E089E693E00E94520B64E571E089E6A3
:1002200093E00E94350B4AE050E062E170E089E61D
:1002300093E00E94070C6BE571E089E693E00E9471
:10024000350B63E671E089E693E00E94350B6AE6C0
:1002500071E089E693E00E94350B4AE050E06AE2E3
:1002600070E089E693E00E940F0CE6E4F2E0DF0123
:1002700012971C9211961C921082339682E0EC3DEC
:10028000F807A9F71092DE021092DD0208959F92FE
:10029000AF92BF92CF92DF92EF92FF920F931F9394
:1002A000CF93DF93EC018B017A01EAE0F0E0BF012C
:1002B0000E94EB0EA62EC801BF010E94EB0EB62EC7
:1002C000C701BF010E94EB0EC62EDE01D7FD1796B7
:1002D00063E0B595A7956A95E1F7C80117FD079604
:1002E00053E0959587955A95E1F7B82FC701F7FC2C
:1002F000079643E0959587954A95E1F7D82E60E0FB
:1003000070E040E050E080E090E0233331050CF0F5
:1003100047C0FC01EE0FFF1FEC5DFE4F0190F08126
:10032000E02DE217F30759F4F901EE0FFF1FE20F7A
:10033000F31FEC5BFD4FC0830183E2820196FA015B
:10034000EE0FFF1FEC5EFE4F0190F081E02DE217F3
:10035000F30761F4F901EE0FFF1FE20FF31FEC5BEF
:10036000FD4FA082B182C2824F5F5F4FFB01EE0F53
:10037000FF1FE65FFE4F0190F081E02DE217F307CB
:1003800061F4F901EE0FFF1FE20FF31FEC5BFD4F6D
:10039000A083B183D2826F5F7F4F2F5F3F4FB5CF76
:1003A000DF91CF911F910F91FF90EF90DF90CF9051
:1003B000BF90AF909F9008950F931F93CF93DF93BB
:1003C0002FEF30E040E050E060E070E0CB010E94B1
:1003D0004B0CCAEDD2E068832FEF30E040E050E0F4
:1003E00060E070E0CB010E944B0C0BED12E0F801D5
:1003F00060832FEF30E040E050E060E070E0CB0140
:100400000E944B0C6093DC02462F50E0F8016081A3
:1004100070E0888190E0DF91CF911F910F910C9453
:1004200047010F931F93CF93DF9380913A010E946E
:10043000D408EC018091F7029091F802C817D9070F
:1004400051F00E94A0076093EF027093F002809336
:10045000F1029093F2020E94A0070091EF02109126
:10046000F0022091F1023091F202601B710B820BBD
:10047000930B009136011091370120913801309192
:100480003901061717072807390708F062C080915D
:10049000F9029091FA02C817D90709F45AC0D0930B
:1004A000FA02C093F902209709F053C01092DE02BD
:1004B0001092DD028091F5029091F6028230910552
:1004C00091F17CF4009729F1019709F042C0109254
:1004D000DA028FEF8093DB021092DC0282E090E080
:1004E0002BC08330910569F1049799F51092DA02D7
:1004F0001092DB021092DC0240E050E060E070E01D
:1005000080E090E00E9447011092F6021092F502FE
:1005100020C08FEF8093DA021092DB021092DC028F
:1005200081E090E009C01092DA021092DB028FEFB6
:100530008093DC0283E090E09093F6028093F502D2
:1005400008C00E94DC018091F5029091F6020196AC
:10055000F3CFD093F802C093F702DF91CF911F91B0
:100560000F9108954F925F926F927F928F929F9218
:10057000AF92BF92CF92DF92EF92FF920F931F93B1
:10058000CF93DF9300D000D0CDB7DEB70E94110229
:100590008091F3029091F4028130910549F1BCF40D
:1005A000892B09F006C14091DC0250E06091DB022A
:1005B00070E08091DA0290E00E94470142E350E04F
:1005C00064E472E08BEF92E00E94A000F2C08230FF
:1005D0009105E9F0039709F0ECC01092DA0210924D
:1005E000DB021092DC021092F4021092F302E1C0DE
:1005F00042E350E06EEA71E08BEF92E00E94A000CF
:1006000064E170E080E090E00E94CF07D2C080916A
:10061000DD029091DE02892BF1F48091DA02869559
:1006200090E09093E4028093E3028091DB02869550
:1006300090E09093E2028093E1028091DC02869543
:1006400090E09093E0028093DF0281E090E090934D
:10065000DE028093DD020E94A0076B017C016093A3
:10066000EB027093EC028093ED029093EE026090A7
:10067000E3027090E40260913401709135018827A3
:1006800077FD8095982F0E946B0D9B01AC016BED5F
:100690007FE089EC90E40E94D00C4B015C01C70123
:1006A000B6010E946B0D9B01AC01C501B4010E9413
:1006B000550E0E94CD0C6B017C01B301882777FD9C
:1006C0008095982F0E946B0D4B015C01B301615026
:1006D0007109882777FD8095982F0E946B0DA701DF
:1006E00096010E94550E9B01AC01C501B4010E9408
:1006F000690C0E94380D69837A838B839C8389817E
:100700009A819093EA028093E9026090E1027090EE
:10071000E202B301882777FD8095982F0E946B0D28
:100720004B015C01B30161507109882777FD809509
:10073000982F0E946B0DA70196010E94550E9B01F8
:10074000AC01C501B4010E94690C0E94380D4B0137
:100750005C017093E8026093E7020091DF02109160
:10076000E002B801882777FD8095982F0E946B0DD5
:100770002B013C01B80161507109882777FD8095F4
:10078000982F0E946B0DA70196010E94550E9B01A8
:10079000AC01C301B2010E94690C0E94380D709334
:1007A000E6026093E502AB01B40189819A810E945F
:1007B000470142E350E064E472E08BEF92E00E9474
:1007C000A00064E170E080E090E00E94CF070E940A
:1007D000CA05882309F496C080915303909154036D
:1007E000892B09F08FC080910D0387FD8BC080910C
:1007F0000D038F718A3009F085C088E0EFE0F3E0E7
:10080000ADEFB2E001900D928A95E1F78091FD0283
:100810009091FE028093DA026091FF0270910003D2
:100820006093DB0240910103509102034093DC028C
:100830000E94470180910303909104039093F40276
:100840008093F302029721F41092DE021092DD02EF
:1008500065E771E089E693E00E94350B6091FD0247
:100860007091FE024AE050E089E693E00E940F0C8E
:100870006DE771E089E693E00E94350B6091FF021D
:10088000709100034AE050E089E693E00E940F0C6B
:1008900065E871E089E693E00E94350B6091010301
:1008A000709102034AE050E089E693E00E940F0C49
:1008B0006DE871E089E693E00E94350B60910303D7
:1008C000709104034AE050E089E693E00E940F0C27
:1008D00065E971E089E693E00F900F900F900F901B
:1008E000DF91CF911F910F91FF90EF90DF90CF900C
:1008F000BF90AF909F908F907F906F905F904F9040
:100900000C94520B0F900F900F900F90DF91CF919E
:100910001F910F91FF90EF90DF90CF90BF90AF901D
:100920009F908F907F906F905F904F9008958CE98B
:1009300091E09093FC028093FB0208958627682F34
:1009400062956827062E669566956025062E669543
:1009500060256770082E892F669507946795902DFE
:100960008627069467959025862708952CB52160E3
:100970002CBD25B141E050E060E070E000903E0108
:1009800004C0440F551F661F771F0A94D2F7409585
:10099000422345B99EBD0DB407FEFDCF2EB530E014
:1009A000322F22278EBD0DB407FEFDCF9EB585B137
:1009B00041E050E060E070E000903E0104C0440F70
:1009C000551F661F771F0A94D2F7842B85B98CB503
:1009D0008E7F8CBDA901492BCA010895CF9380E079
:1009E00090E00E94B60480915503853091F580E037
:1009F00090EB0E94B604682F80915603811104C0C9
:100A000090915903911175C0E091560381E08E0FCA
:100A100080935603F0E0E45FFC4F608380915303C2
:100A2000909154030E949E04909354038093530327
:100A300080910E032091560390E0049630E08217D7
:100A400093070CF461C080915603873408F05CC0B2
:100A500060C08091550387FF1AC0E0910E0380911A
:100A6000550391E0980F90935503ED5FE80FF0E088
:100A7000E45FFC4FC08180915303909154036C2F2D
:100A80000E949E0490935403809353032EC0809140
:100A90005503833001F154F48823B9F08130F9F41F
:100AA0008091530390915403C92F1AC0893059F093
:100AB0008A30A9F4C091590390910E038DEF891BE0
:100AC000809355030DC0CDE20BC0809153039091EC
:100AD0005403C82F05C08DE092E80E94B604CAEA0C
:100AE000809155038F5F809355038C2F90E098542D
:100AF0000DC0E091560381E08E0F80935603F0E025
:100B0000E45FFC4F908380CF8DE092E8CF910C940E
:100B1000B604CF91089525B181E090E0A0E0B0E067
:100B2000AC01BD0100903E0104C0440F551F661F7B
:100B3000771F0A94D2F7242B25B924B100903E01E7
:100B400004C0880F991FAA1FBB1F0A94D2F7282B35
:100B500024B961E08AE00E949E0861E08AE00E9478
:100B6000650861E08BE00E94650860E08CE00E940F
:100B7000650861E08DE00E94650880E58CBD8DB55B
:100B800081608DBD60E082E00E94650861E082E0E6
:100B90000C949E0880915503853091F580910E0349
:100BA0002091560390E0049630E08217930724F0DA
:100BB00080915603873420F184E08093550380911F
:100BC0005303909154039093540380935303809163
:100BD0000E03833430F081E090E0909354038093CF
:100BE000530380910D0386FF3EC090915A03892FD5
:100BF0008F718F31C1F180910D0389278F7199F128
:100C000080915503843069F580910703882351F062
:100C100080930E0310920D0310920C0383E08093D7
:100C2000560304C010920E03109256038FEF9FEFED
:100C3000909354038093530360915903662351F0BA
:100C400080915303909154030E949E049093540307
:100C50008093530385E0809355038DED92E80E94C5
:100C6000B60480E008958091530390915403892B3A
:100C700049F4E0910503F0910603309719F080E004
:100C800009950BC08FEF9FEFDC01809308039093D1
:100C90000903A0930A03B0930B0381E00895CF9357
:100CA000C62F80935A0340935903309358032093DF
:100CB00057030E948B0580E090E00E94B60485E017
:100CC00092E80E94B60480E098EB0E94B60482E0AD
:100CD0000E94D408892B19F480E090E0F6CF20E13F
:100CE000C29FC0011124876C90680E94B604809155
:100CF00057039091580390560E94B60486E096ECF4
:100D00000E94B60482EA94E90E94B6048CEA92EC4E
:100D10000E94B604C0915903CC2341F083E89AECB9
:100D20000E94B6048C2F90E09E6C06C08BE89AEC73
:100D30000E94B6048DE29EEC0E94B60483E894EC17
:100D40000E94B60480E598E90E94B60487E79CEC0F
:100D50000E94B60480E090EE0E94B60480E098EC19
:100D60000E94B60489E490EC0E94B60484E080936B
:100D7000550380915A038F7141F040E050E06EEED0
:100D800074E080E00E94CC0603C080E00E94EC0684
:100D900080915A03CF9108958230E8F4E82FF0E073
:100DA000EE0FFF1FE45AFC4F71836083813041F0E6
:100DB000809169008C7F842B80936900E89A089564
:100DC00080916900440F551F440F551F837F842B6A
:100DD00080936900E99A0895823068F4813011F0B7
:100DE000E89801C0E998E82FF0E0EE0FFF1FE45A01
:100DF000FC4F1182108208951F920F920FB60F922E
:100E000011242F933F934F935F936F937F938F930F
:100E10009F93AF93BF93EF93FF9380915C03909167
:100E20005D03892B29F0E0915C03F0915D03099546
:100E3000FF91EF91BF91AF919F918F917F916F91B2
:100E40005F914F913F912F910F900FBE0F901F9088
:100E500018951F920F920FB60F9211242F933F9364
:100E60004F935F936F937F938F939F93AF93BF93B2
:100E7000EF93FF9380915E0390915F03892B29F09C
:100E8000E0915E03F0915F030995FF91EF91BF91AF
:100E9000AF919F918F917F916F915F914F913F9112
:100EA0002F910F900FBE0F901F9018951F920F92C9
:100EB0000FB60F9211242F933F938F939F93AF936D
:100EC000BF938091610390916203A0916303B091FD
:100ED00064033091600323E0230F2D3720F4019643
:100EE000A11DB11D05C026E8230F0296A11DB11D4D
:100EF000209360038093610390936203A093630344
:100F0000B09364038091650390916603A091670399
:100F1000B09168030196A11DB11D80936503909364
:100F20006603A0936703B0936803BF91AF919F914D
:100F30008F913F912F910F900FBE0F901F9018959A
:100F40002FB7F894609161037091620380916303FD
:100F5000909164032FBF08953FB7F8948091650383
:100F600090916603A0916703B091680326B5A89B92
:100F700005C02F3F19F00196A11DB11D3FBF662787
:100F8000782F892F9A2F620F711D811D911D42E0CC
:100F9000660F771F881F991F4A95D1F70895CF9242
:100FA000DF92EF92FF92CF93DF936B017C010E945F
:100FB000AC07EB01C114D104E104F10489F00E94F3
:100FC000670C0E94AC076C1B7D0B683E734090F36E
:100FD00081E0C81AD108E108F108C851DC4FEACF16
:100FE000DF91CF91FF90EF90DF90CF900895019720
:100FF00039F0880F991F880F991F02970197F1F711
:101000000895789484B5826084BD84B5816084BD80
:1010100085B5826085BD85B5816085BDEEE6F0E071
:10102000808181608083E1E8F0E0108280818260CD
:101030008083808181608083E0E8F0E0808181604E
:101040008083E1EBF0E0808184608083E0EBF0E07E
:10105000808181608083EAE7F0E080818460808322
:1010600080818260808380818160808380818068CC
:1010700080831092C1000895833081F028F481307C
:1010800099F08230A1F008958730A9F08830B9F046
:101090008430D1F4809180008F7D03C080918000E6
:1010A0008F7780938000089584B58F7702C084B5D0
:1010B0008F7D84BD08958091B0008F7703C08091AB
:1010C000B0008F7D8093B0000895CF93DF9390E0C0
:1010D000FC01E656FF4F2491FC01E255FF4F84913D
:1010E000882349F190E0880F991FFC01EA52FF4FD5
:1010F000A591B49184539F4FFC01C591D4919FB7A2
:10110000611108C0F8948C91209582238C9388817A
:1011100082230AC0623051F4F8948C91322F3095BA
:1011200083238C938881822B888304C0F8948C91CC
:10113000822B8C939FBFDF91CF9108950F931F93C4
:10114000CF93DF931F92CDB7DEB7282F30E0F901A0
:10115000EA57FF4F8491F901E656FF4F1491F901C8
:10116000E255FF4F04910023C9F0882321F06983E1
:101170000E943C086981E02FF0E0EE0FFF1FE4536E
:10118000FF4FA591B4919FB7F8948C91611103C062
:101190001095812301C0812B8C939FBF0F90DF910D
:1011A000CF911F910F910895CF93DF93282F30E0B7
:1011B000F901EA57FF4F8491F901E656FF4FD491A8
:1011C000F901E255FF4FC491CC2391F081110E94A7
:1011D0003C08EC2FF0E0EE0FFF1FEE53FF4FA59100
:1011E000B4912C912D2381E090E021F480E002C0A5
:1011F00080E090E0DF91CF910895FC01818D228DF8
:1012000090E0805C9F4F821B91098F73992708950E
:10121000FC01918D828D981731F0828DE80FF11DC0
:10122000858D90E008958FEF9FEF0895FC01918DDB
:10123000828D981761F0828DDF01A80FB11D5D9638
:101240008C91928D9F5F9F73928F90E008958FEFA6
:101250009FEF08958AE99AE0892B49F080E090E0B9
:10126000892B29F00E949A0A81110C94000008959C
:10127000FC01848DDF01A80FB11DA35ABF4F2C9133
:10128000848D90E001968F739927848FA689B78902
:101290002C93A089B1898C9180648C93938D848DDB
:1012A000981306C00288F389E02D80818F7D8083AA
:1012B0000895CF93DF93EC01888D8823C9F0EA89E4
:1012C000FB89808185FD05C0A889B9898C9186FD3F
:1012D0000FC00FB607FCF5CF808185FFF2CFA8893C
:1012E000B9898C9185FFEDCFCE010E943809E7CFF7
:1012F000DF91CF910895CF92DF92FF920F931F93CA
:10130000CF93DF931F92CDB7DEB76C01DC015B9604
:101310009C915B975C968C915C97981307C0509654
:10132000ED91FC915197808185FD32C0F601038DCE
:1013300010E00F5F1F4F0F731127F02EF601848D01
:10134000F81211C00FB607FCF9CFD6015096ED91F7
:10135000FC915197808185FFF1CFC60169830E947E
:1013600038096981EBCF838DE80FF11DE35AFF4FF8
:101370006083D6015B960C935B975296ED91FC913E
:10138000539780818062808381E058968C930DC052
:10139000D6015696ED91FC91579760835096ED914A
:1013A000FC91519780818064808381E090E00F9070
:1013B000DF91CF911F910F91FF90DF90CF90089513
:1013C000BF92CF92DF92EF92FF92CF93DF93EC0127
:1013D0006A017B01B22EE889F98982E08083411598
:1013E00081EE580761057105A1F060E079E08DE3B9
:1013F00090E0A70196010E94FF0E2150310941099A
:1014000051095695479537952795211580E138075D
:1014100098F0E889F989108260E874E88EE190E03C
:10142000A70196010E94FF0E21503109410951097F
:101430005695479537952795EC85FD853083EE8544
:10144000FF852083188EEC89FD89B082EA89FB89AB
:10145000808180618083EA89FB89808188608083C4
:10146000EA89FB89808180688083EA89FB898081A1
:101470008F7D8083DF91CF91FF90EF90DF90CF90B1
:10148000BF9008951F920F920FB60F9211242F93C1
:101490008F939F93EF93FF93E0917903F0917A03F9
:1014A0008081E0917F03F091800382FD12C09081E2
:1014B000809182038F5F8F7320918303821751F095
:1014C000E0918203F0E0E759FC4F958F809382030F
:1014D00001C08081FF91EF919F918F912F910F908B
:1014E0000FBE0F901F9018951F920F920FB60F927C
:1014F00011242F933F934F935F936F937F938F9319
:101500009F93AF93BF93EF93FF9389E693E00E947D
:101510003809FF91EF91BF91AF919F918F917F918A
:101520006F915F914F913F912F910F900FBE0F9050
:101530001F90189589E693E00E94FD0821E0892B11
:1015400009F420E0822F089510926C0310926B032F
:1015500088EE93E0A0E0B0E080936D0390936E037B
:10156000A0936F03B093700382EA91E090936A03B3
:101570008093690385EC90E09093760380937503E4
:1015800084EC90E0909378038093770380EC90E074
:1015900090937A038093790381EC90E090937C039D
:1015A00080937B0382EC90E090937E0380937D0395
:1015B00086EC90E09093800380937F0310928203E7
:1015C0001092830310928403109285030895089566
:1015D0000E9401080E94E70A0E94E800CAE2D9E0DE
:1015E0000E94B2022097E1F30E942A09F9CFCF921C
:1015F000DF92EF92FF920F931F93CF93DF936C01D3
:101600007A01EB01E60EF71E00E010E0CE15DF05D3
:1016100061F06991D601ED91FC910190F081E02D8E
:10162000C6010995080F191FF1CFC801DF91CF91AD
:101630001F910F91FF90EF90DF90CF90089561156B
:10164000710581F0DB010D900020E9F7AD014150FB
:101650005109461B570BDC01ED91FC910280F3818F
:10166000E02D099480E090E008950C941F0BDC01BC
:10167000ED91FC910190F081E02D09940F931F935F
:10168000CF93DF93EC016DE00E94370B8C016AE091
:10169000CE010E94370B800F911FDF91CF911F91D8
:1016A0000F9108950F931F93CF93DF93EC010E9446
:1016B0001F0B8C01CE010E943E0B800F911FDF910A
:1016C000CF911F910F9108958F929F92AF92BF92E9
:1016D000CF92DF92EF92FF920F931F93CF93DF93FE
:1016E000CDB7DEB7A1970FB6F894DEBF0FBECDBF62
:1016F0007C01C42EE52FCB01D22E19A221E02D159D
:1017000010F02AE0D22E8E010F5D1F4F8D2C912CF0
:10171000A12CB12C6C2D7E2FA50194010E94FF0EEF
:101720008C2DD29E80191124015011098A3014F495
:10173000805D01C0895CF801808321153105410578
:10174000510521F0C22EE32FCA01E4CFB801C70131
:101750000E941F0BA1960FB6F894DEBF0FBECDBF3F
:10176000DF91CF911F910F91FF90EF90DF90CF907D
:10177000BF90AF909F908F900895CF92DF92EF929D
:10178000FF920F931F93CF93DF93EC016A017B01CC
:101790002115310579F4E881F9810190F081E02D7E
:1017A000642FDF91CF911F910F91FF90EF90DF9009
:1017B000CF9009942A303105E9F477FF1AC06DE221
:1017C0000E94370B8C0144275527BA014C195D093B
:1017D0006E097F092AE0CE010E94640B800F911FE1
:1017E000DF91CF911F910F91FF90EF90DF90CF90FD
:1017F00008952AE0B701A601CE01DF91CF911F9194
:101800000F91FF90EF90DF90CF900C94640B9A01B2
:10181000AB01662757FD6095762F0C94BD0B0F9397
:101820001F93CF93DF93EC019A01AB01662757FD1D
:101830006095762F0E94BD0B8C01CE010E943E0B5D
:10184000800F911FDF91CF911F910F910895CF933A
:10185000DF9300D000D0CDB7DEB79B01AC0161159E
:1018600071058105910569F069833A834B835C8337
:101870000E94B70F29813A814B815C810E94210F20
:1018800003C060E070E0CB010F900F900F900F90BD
:10189000DF91CF910895CF92DF92EF92FF926B018B
:1018A0007C01621773078407950764F4CA01B901C4
:1018B0006C197D098E099F090E94270C6C0D7D1DF6
:1018C0008E1D9F1DFF90EF90DF90CF90089508959B
:1018D0005058BB27AA270ED09DC166D130F06BD1DE
:1018E00020F031F49F3F11F41EF436C10EF4E09560
:1018F000E7FB2CC1E92FB0D180F3BA176207730759
:101900008407950718F071F49EF5C8C10EF4E095B0
:101910000B2EBA2FA02D0B01B90190010C01CA01A9
:10192000A0011124FF27591B99F0593F50F4503E54
:1019300068F11A16F040A22F232F342F4427585F46
:10194000F3CF469537952795A795F0405395C9F75E
:101950007EF41F16BA0B620B730B840BBAF0915016
:10196000A1F0FF0FBB1F661F771F881FC2F70EC0B5
:10197000BA0F621F731F841F48F487957795679588
:10198000B795F7959E3F08F0B3CF9395880F08F071
:101990009927EE0F97958795089515D1E3954BC13B
:1019A0000CD038C108D140F0FFD030F021F45F3FB7
:1019B00019F0CCC0511173C1CFC04ED198F3992307
:1019C000C9F35523B1F3951B550BBB27AA27621703
:1019D0007307840738F09F5F5F4F220F331F441F48
:1019E000AA1FA9F333D00E2E3AF0E0E830D0915080
:1019F0005040E695001CCAF729D0FE2F27D0660F6D
:101A0000771F881FBB1F261737074807AB07B0E8AB
:101A100009F0BB0B802DBF01FF2793585F4F2AF0C1
:101A20009E3F510568F092C03AC15F3FECF3983E8B
:101A3000DCF3869577956795B795F7959F5FC9F71E
:101A4000880F911D9695879597F90895E1E0660FA7
:101A5000771F881FBB1F621773078407BA0720F020
:101A6000621B730B840BBA0BEE1F88F7E095089589
:101A700004D06894B11113C10895F6D088F09F572F
:101A800090F0B92F9927B751A0F0D1F0660F771FCA
:101A9000881F991F1AF0BA95C9F712C0B13081F0AA
:101AA000FDD0B1E00895FAC0672F782F8827B85F7E
:101AB00039F0B93FCCF3869577956795B395D9F70B
:101AC0003EF490958095709561957F4F8F4F9F4F15
:101AD0000895E89409C097FB3EF490958095709521
:101AE00061957F4F8F4F9F4F9923A9F0F92F96E96A
:101AF000BB279395F695879577956795B795F111DF
:101B0000F8CFFAF4BB0F11F460FF1BC06F5F7F4F7B
:101B10008F4F9F4F16C0882311F096E911C077238D
:101B200021F09EE8872F762F05C0662371F096E896
:101B3000862F70E060E02AF09A95660F771F881F65
:101B4000DAF7880F9695879597F9089597F99F6723
:101B500080E870E060E008959FEF80EC0895DF93E7
:101B6000CF931F930F93FF92EF92DF927B018C0133
:101B7000689405C0DA2EEF01A4D0FE01E894A59187
:101B80002591359145915591AEF3EF01B3DEFE01FC
:101B90009701A801DA9479F7DF90EF90FF900F9109
:101BA0001F91CF91DF91089500240A94161617060D
:101BB00018060906089500240A941216130614063E
:101BC00005060895C9CF50D0E8F3E894E0E0BB27BC
:101BD0009F57F0F02AED3FE049EC06C0EE0FBB0F37
:101BE000661F771F881F28F0B23A620773078407C1
:101BF00028F0B25A620B730B840BE3959A9572F737
:101C0000803830F49A95BB0F661F771F881FD2F774
:101C10009048B0C0092E0394000C11F4882352F0B0
:101C2000BB0F40F4BF2B11F460FF04C06F5F7F4F08
:101C30008F4F9F4F0895EF93E0FF06C0A2EA2AED71
:101C40003FE049EC5FEB56DEE5DF0F90039401FCCB
:101C50009058E8E6F0E09AC057FD9058440F551FA1
:101C600059F05F3F71F04795880F97FB991F61F01E
:101C70009F3F79F087950895121613061406551F95
:101C8000F2CF4695F1DF08C0161617061806991F01
:101C9000F1CF86957105610508940895E894BB27F6
:101CA00066277727CB0197F908950BD0B3CF7CDF58
:101CB00028F081DF18F0952309F048CF4DCF11248B
:101CC000EECFCADFA0F3959FD1F3950F50E0551FDB
:101CD000629FF001729FBB27F00DB11D639FAA2781
:101CE000F00DB11DAA1F649F6627B00DA11D661FD0
:101CF000829F2227B00DA11D621F739FB00DA11DF1
:101D0000621F839FA00D611D221F749F3327A00DAA
:101D1000611D231F849F600D211D822F762F6A2F46
:101D200011249F5750408AF0E1F088234AF0EE0FCB
:101D3000FF1FBB1F661F771F881F91505040A9F7D8
:101D40009E3F510570F002CFAACF5F3FECF3983E63
:101D5000DCF3869577956795B795F795E7959F5F3F
:101D6000C1F7FE2B880F911D9695879597F90895D9
:101D70009F3F31F0915020F4879577956795B795FF
:101D8000880F911D9695879597F908959F938F9346
:101D90007F936F93FF93EF939B01AC0186DFEF91ED
:101DA000FF91DDDE2F913F914F915F917ECFAA1B76
:101DB000BB1B51E107C0AA1FBB1FA617B70710F036
:101DC000A61BB70B881F991F5A95A9F78095909568
:101DD000BC01CD01089597FB072E16F4009407D09F
:101DE00077FD09D00E94D70E07FC05D03EF49095F0
:101DF00081959F4F0895709561957F4F0895A1E259
:101E00001A2EAA1BBB1BFD010DC0AA1FBB1FEE1F74
:101E1000FF1FA217B307E407F50720F0A21BB30BBF
:101E2000E40BF50B661F771F881F991F1A9469F73B
:101E300060957095809590959B01AC01BD01CF0197
:101E40000895052E97FB1EF400940E94380F57FD4D
:101E500007D00E94FF0E07FC03D04EF40C94380FFD
:101E600050954095309521953F4F4F4F5F4F0895C6
:101E700090958095709561957F4F8F4F9F4F0895F6
:101E8000A29FB001B39FC001A39F700D811D1124BB
:101E9000911DB29F700D811D1124911D08950E9406
:101EA000400FA59F900DB49F900DA49F800D911D94
:101EB00011240895B7FF0C944F0F0E944F0F821BFF
:101EC000930B0895EE0FFF1F0590F491E02D0994F8
:101ED0008F929F92AF92BF92CF92DF92EF92FF923A
:101EE000CF93DF93EC01688179818A819B816115B1
:101EF00071058105910521F464E279ED8BE597E0A8
:101F00002DE133EF41E050E00E94210F49015A01D9
:101F10009B01AC01A7EAB1E40E944F0F6B017C0169
:101F2000ACEEB4EFA50194010E945D0FC60ED71E62
:101F3000E81EF91EF7FE06C081E0C81AD108E108C4
:101F400080E8F80AC882D982EA82FB82C701B6011A
:101F50009F77DF91CF91FF90EF90DF90CF90BF9070
:101F6000AF909F908F9008950E94680F089586E02B
:101F700091E00E94680F0895609306017093070135
:0E1F800080930801909309010895F894FFCF13
:101F8E0000000604800001000000050006000700A6
:101F9E000800090013001600170018001B001C0093
:101FAE001D001E0004000A00120014001500190086
:101FBE001A001F0088134B0000000400110002528B
:101FCE004631324220436C6F616B20526563656906
:101FDE00766572004E6F64653A2000204672657118
:101FEE003A20003433334D687A00204E6574776F93
:101FFE00726B3A200064617461313A20006461743E
:10200E0061323A200064617461333A200064617475
:10201E0061343A200020200000000000A0000000E3
:0E202E0000007B09F70AFD0816090809590988
:00000001FF
